{
  "contractName": "Audit",
  "abi": [
    {
      "inputs": [
        {
          "internalType": "uint256",
          "name": "",
          "type": "uint256"
        }
      ],
      "name": "records",
      "outputs": [
        {
          "internalType": "address",
          "name": "auditor",
          "type": "address"
        },
        {
          "internalType": "bool",
          "name": "result",
          "type": "bool"
        },
        {
          "internalType": "uint256",
          "name": "timestamp",
          "type": "uint256"
        },
        {
          "internalType": "string",
          "name": "proof",
          "type": "string"
        }
      ],
      "stateMutability": "view",
      "type": "function",
      "constant": true
    },
    {
      "inputs": [
        {
          "internalType": "bool",
          "name": "_result",
          "type": "bool"
        },
        {
          "internalType": "string",
          "name": "_proof",
          "type": "string"
        }
      ],
      "name": "submitAudit",
      "outputs": [],
      "stateMutability": "nonpayable",
      "type": "function"
    },
    {
      "inputs": [
        {
          "internalType": "uint256",
          "name": "index",
          "type": "uint256"
        }
      ],
      "name": "getAudit",
      "outputs": [
        {
          "internalType": "address",
          "name": "",
          "type": "address"
        },
        {
          "internalType": "bool",
          "name": "",
          "type": "bool"
        },
        {
          "internalType": "uint256",
          "name": "",
          "type": "uint256"
        },
        {
          "internalType": "string",
          "name": "",
          "type": "string"
        }
      ],
      "stateMutability": "view",
      "type": "function",
      "constant": true
    },
    {
      "inputs": [],
      "name": "getCount",
      "outputs": [
        {
          "internalType": "uint256",
          "name": "",
          "type": "uint256"
        }
      ],
      "stateMutability": "view",
      "type": "function",
      "constant": true
    }
  ],
  "bytecode": "0x608060405234801561000f575f80fd5b50610b6e8061001d5f395ff3fe608060405234801561000f575f80fd5b506004361061004a575f3560e01c806317bf37a31461004e5780633446106714610081578063a87d942c146100b4578063cab0b441146100d2575b5f80fd5b610068600480360381019061006391906104aa565b6100ee565b60405161007894939291906105c7565b60405180910390f35b61009b600480360381019061009691906104aa565b610287565b6040516100ab94939291906105c7565b60405180910390f35b6100bc610372565b6040516100c99190610611565b60405180910390f35b6100ec60048036038101906100e79190610780565b61037d565b005b5f805f60605f805490508510610139576040517f08c379a000000000000000000000000000000000000000000000000000000000815260040161013090610824565b60405180910390fd5b5f858154811061014c5761014b610842565b5b905f5260205f2090600302015f015f9054906101000a900473ffffffffffffffffffffffffffffffffffffffff165f868154811061018d5761018c610842565b5b905f5260205f2090600302015f0160149054906101000a900460ff165f87815481106101bc576101bb610842565b5b905f5260205f209060030201600101545f88815481106101df576101de610842565b5b905f5260205f2090600302016002018080546101fa9061089c565b80601f01602080910402602001604051908101604052809291908181526020018280546102269061089c565b80156102715780601f1061024857610100808354040283529160200191610271565b820191905f5260205f20905b81548152906001019060200180831161025457829003601f168201915b5050505050905093509350935093509193509193565b5f8181548110610295575f80fd5b905f5260205f2090600302015f91509050805f015f9054906101000a900473ffffffffffffffffffffffffffffffffffffffff1690805f0160149054906101000a900460ff16908060010154908060020180546102f19061089c565b80601f016020809104026020016040519081016040528092919081815260200182805461031d9061089c565b80156103685780601f1061033f57610100808354040283529160200191610368565b820191905f5260205f20905b81548152906001019060200180831161034b57829003601f168201915b5050505050905084565b5f8080549050905090565b5f60405180608001604052803373ffffffffffffffffffffffffffffffffffffffff168152602001841515815260200142815260200183815250908060018154018082558091505060019003905f5260205f2090600302015f909190919091505f820151815f015f6101000a81548173ffffffffffffffffffffffffffffffffffffffff021916908373ffffffffffffffffffffffffffffffffffffffff1602179055506020820151815f0160146101000a81548160ff02191690831515021790555060408201518160010155606082015181600201908161045f9190610a69565b5050505050565b5f604051905090565b5f80fd5b5f80fd5b5f819050919050565b61048981610477565b8114610493575f80fd5b50565b5f813590506104a481610480565b92915050565b5f602082840312156104bf576104be61046f565b5b5f6104cc84828501610496565b91505092915050565b5f73ffffffffffffffffffffffffffffffffffffffff82169050919050565b5f6104fe826104d5565b9050919050565b61050e816104f4565b82525050565b5f8115159050919050565b61052881610514565b82525050565b61053781610477565b82525050565b5f81519050919050565b5f82825260208201905092915050565b5f5b83811015610574578082015181840152602081019050610559565b5f8484015250505050565b5f601f19601f8301169050919050565b5f6105998261053d565b6105a38185610547565b93506105b3818560208601610557565b6105bc8161057f565b840191505092915050565b5f6080820190506105da5f830187610505565b6105e7602083018661051f565b6105f4604083018561052e565b8181036060830152610606818461058f565b905095945050505050565b5f6020820190506106245f83018461052e565b92915050565b61063381610514565b811461063d575f80fd5b50565b5f8135905061064e8161062a565b92915050565b5f80fd5b5f80fd5b7f4e487b71000000000000000000000000000000000000000000000000000000005f52604160045260245ffd5b6106928261057f565b810181811067ffffffffffffffff821117156106b1576106b061065c565b5b80604052505050565b5f6106c3610466565b90506106cf8282610689565b919050565b5f67ffffffffffffffff8211156106ee576106ed61065c565b5b6106f78261057f565b9050602081019050919050565b828183375f83830152505050565b5f61072461071f846106d4565b6106ba565b9050828152602081018484840111156107405761073f610658565b5b61074b848285610704565b509392505050565b5f82601f83011261076757610766610654565b5b8135610777848260208601610712565b91505092915050565b5f80604083850312156107965761079561046f565b5b5f6107a385828601610640565b925050602083013567ffffffffffffffff8111156107c4576107c3610473565b5b6107d085828601610753565b9150509250929050565b7f496e76616c696420696e646578000000000000000000000000000000000000005f82015250565b5f61080e600d83610547565b9150610819826107da565b602082019050919050565b5f6020820190508181035f83015261083b81610802565b9050919050565b7f4e487b71000000000000000000000000000000000000000000000000000000005f52603260045260245ffd5b7f4e487b71000000000000000000000000000000000000000000000000000000005f52602260045260245ffd5b5f60028204905060018216806108b357607f821691505b6020821081036108c6576108c561086f565b5b50919050565b5f819050815f5260205f209050919050565b5f6020601f8301049050919050565b5f82821b905092915050565b5f600883026109287fffffffffffffffffffffffffffffffffffffffffffffffffffffffffffffffff826108ed565b61093286836108ed565b95508019841693508086168417925050509392505050565b5f819050919050565b5f61096d61096861096384610477565b61094a565b610477565b9050919050565b5f819050919050565b61098683610953565b61099a61099282610974565b8484546108f9565b825550505050565b5f90565b6109ae6109a2565b6109b981848461097d565b505050565b5b818110156109dc576109d15f826109a6565b6001810190506109bf565b5050565b601f821115610a21576109f2816108cc565b6109fb846108de565b81016020851015610a0a578190505b610a1e610a16856108de565b8301826109be565b50505b505050565b5f82821c905092915050565b5f610a415f1984600802610a26565b1980831691505092915050565b5f610a598383610a32565b9150826002028217905092915050565b610a728261053d565b67ffffffffffffffff811115610a8b57610a8a61065c565b5b610a95825461089c565b610aa08282856109e0565b5f60209050601f831160018114610ad1575f8415610abf578287015190505b610ac98582610a4e565b865550610b30565b601f198416610adf866108cc565b5f5b82811015610b0657848901518255600182019150602085019450602081019050610ae1565b86831015610b235784890151610b1f601f891682610a32565b8355505b6001600288020188555050505b50505050505056fea2646970667358221220914113c886c5e28d937d967c2cfc9730b94351a8a90a7a14d15c89ce03b5448664736f6c63430008140033",
  "immutableReferences": {},
  "source": "// SPDX-License-Identifier: MIT\npragma solidity ^0.8.0;\n\ncontract Audit {\n    struct Record {\n        address auditor;\n        bool result;\n        uint timestamp;\n        string proof;\n    }\n\n    Record[] public records;\n\n    function submitAudit(bool _result, string memory _proof) public {\n        records.push(Record(msg.sender, _result, block.timestamp, _proof));\n    }\n\n    function getAudit(uint index) public view returns (address, bool, uint, string memory) {\n        require(index < records.length, \"Invalid index\");\n        return (\n            records[index].auditor,\n            records[index].result,\n            records[index].timestamp,\n            records[index].proof\n        );\n    }\n\n    function getCount() public view returns (uint) {\n        return records.length;\n    }\n}\n",
  "sourcePath": "C:\\Users\\sriva\\OneDrive\\Desktop\\chandhu\\Final yr project\\BC-CIAS-SIP-demo\\blockchain\\contracts\\Audit.sol",
  "compiler": {
    "name": "solc",
    "version": "0.8.20+commit.a1b79de6.Emscripten.clang"
  },
  "schemaVersion": "3.4.16",
  "updatedAt": "2025-12-08T09:57:13.110Z",
  "networkType": "ethereum",
  "devdoc": {
    "kind": "dev",
    "methods": {},
    "version": 1
  },
  "userdoc": {
    "kind": "user",
    "methods": {},
    "version": 1
  }
}